:100000000C94C3090C94EE090C94EE090C94EE09BF
:100010000C94EE090C94EE090C94EE090C94EE0984
:100020000C94EE090C94EE090C94EE090C94EE0974
:100030000C94EE090C94E14D0C94EE090C94EE092D
:100040000C94EE090C946B560C94D7610C94EE0949
:100050000C9484180C94EE090C94EE090C94EE099F
:100060000C94EE090C94EE090C9458600C94EE0973
:100070000C94EE090C94EE090C94EE090C94EE0924
:100080000C94EE090C94EE090C94EE09084AD73B47
:100090003BCE016E84BCBFFDC12F3D6C74319ABD57
:1000A00056833DDA3D00C77F11BED9E4BB4C3E917B
:1000B0006BAAAABE000000803F05A84CCDB2D44E6A
:1000C000B93836A9020C50B9918688083CA6AAAA6C
:1000D0002ABE000000803F6563686F3A0048617285
:1000E00064636F6465642044656661756C74205355
:1000F000657474696E6773204C6F61646564005346
:10010000746F7265642073657474696E67732072AE
:10011000657472696576656400204400204900209A
:1001200020204D33303120500050494420736574F5
:1001300074696E67733A00205A0020590020204DE0
:10014000323036205800486F6D65206F66667365E3
:100150007420286D6D293A00204500205A0020584F
:100160000020420020540020204D32303520530022
:10017000416476616E636564207661726961626C68
:1001800065733A20533D4D696E2066656564726102
:10019000746520286D6D2F73292C20543D4D696E98
:1001A0002074726176656C20666565647261746541
:1001B00020286D6D2F73292C20423D6D696E696D6D
:1001C000756D207365676D656E742074696D65204B
:1001D000286D73292C20583D6D6178696D756D20EF
:1001E0005859206A65726B20286D6D2F73292C2059
:1001F000205A3D6D6178696D756D205A206A65726F
:100200006B20286D6D2F73292C2020453D6D617862
:10021000696D756D2045206A65726B20286D6D2FA4
:1002200073290020540020204D32303420530041E7
:100230006363656C65726174696F6E3A20533D61EA
:100240006363656C65726174696F6E2C20543D72D6
:1002500065747261637420616363656C6572617457
:10026000696F6E00204500205A0020590020204D63
:100270003230312058004D6178696D756D204163D1
:1002800063656C65726174696F6E20286D6D2F7384
:1002900032293A00204500205A0020590020204DE4
:1002A0003230332058004D6178696D756D20666578
:1002B0006564726174657320286D6D2F73293A002F
:1002C000204500205A0020590020204D3932205866
:1002D0000053746570732070657220756E69743A8E
:1002E0000053657474696E67732053746F7265642C
:1002F000006563686F3A004572726F723A0050721F
:10030000696E7465722073746F70706564206475B3
:100310006520746F206572726F72732E2046697843
:1003200020746865206572726F7220616E6420753A
:100330007365204D39393920746F2072657374618B
:1003400072742E202854656D7065726174757265C3
:100350002069732072657365742E2053657420695B
:100360007420616674657220726573746172746959
:100370006E6729005072696E7465722068616C74D2
:1003800065642E206B696C6C28292063616C6C6538
:100390006421006F6B00526573656E643A20002221
:1003A00000556E6B6E6F776E20636F6D6D616E645E
:1003B0003A2022005A204F6666736574203A200066
:1003C0007A5F6D61783A20007A5F6D696E3A20003D
:1003D0005A204F6666736574005A204F66667365CF
:1003E00074206F6B007A5F6D61783A2000795F6DE1
:1003F00061783A2000785F6D61783A2000205A3A9F
:100400000020593A0020436F756E7420583A20003E
:1004100020453A00205A3A0020593A00583A0046FE
:1004200049524D574152455F4E414D453A4D6172DB
:100430006C696E2056313B20537072696E74657220
:100440002F6772626C206D617368757020666F72C1
:100450002067656E36204649524D574152455F55DB
:10046000524C3A68747470733A2F2F6769746875C8
:10047000622E636F6D2F4572696B5A616C6D2F4DE3
:1004800061726C696E2F2050524F544F434F4C5F36
:1004900056455253494F4E3A312E30204D41434834
:1004A000494E455F545950453A4D656E64656C3907
:1004B000302045585452554445525F434F554E5491
:1004C0003A3120555549443A3030303030303030B0
:1004D0002D303030302D303030302D303030302D28
:1004E0003030303030303030303030300A00204260
:1004F0003A0020453A00543A0020573A0020453A45
:1005000000543A002042403A0020403A00202F0098
:100510003A00205400202F0020423A00202F006F84
:100520006B20543A002569206D696E2C20256920C6
:100530007365630001010100004D4300004D4366F7
:10054000E64C430000A0400000A040000000400036
:10055000004D4300004D4366E64C430000000000A0
:100560000000000000000000004D4300004D436605
:10057000E64C435072696E7465722073746F7070CC
:1005800065642064756520746F206572726F727384
:100590002E2046697820746865206572726F72201B
:1005A000616E6420757365204D39393920746F2070
:1005B000726573746172742E202854656D70657253
:1005C00061747572652069732072657365742E207D
:1005D0005365742069742061667465722072657356
:1005E00074617274696E6729004E6F204C696E6584
:1005F000204E756D62657220776974682063686546
:10060000636B73756D2C204C617374204C696E653F
:100610003A20004E6F20436865636B73756D2077D9
:10062000697468206C696E65206E756D6265722CE8
:10063000204C617374204C696E653A2000636865D4
:10064000636B73756D206D69736D617463682C20C5
:100650004C617374204C696E653A20004C696E657C
:10066000204E756D626572206973206E6F74204C28
:10067000617374204C696E65204E756D6265722BD6
:10068000312C204C617374204C696E653A20004D0A
:10069000313130002020506C616E6E65724275669B
:1006A00066657242797465733A200020467265650A
:1006B000204D656D6F72793A2000446563203330B8
:1006C000203230313400436F6D70696C65643A20BC
:1006D00000535253204D39302D302E32312E3120DF
:1006E0002852654D657267652066726F6D204D6199
:1006F000726C696E20537461626C652900207C20E5
:10070000417574686F723A2000446563203330206D
:10071000323031342031373A33343A303600204CDD
:1007200061737420557064617465643A2000312EE1
:10073000302E30004D61726C696E0020536F66740C
:100740007761726520526573657400205761746328
:1007500068646F67205265736574002042726F771A
:100760006E206F757420526573657400204578742F
:1007700065726E616C20526573657400506F7765A9
:10078000725570007374617274002200656E717529
:1007900065696E672022002200656E717565696E5D
:1007A000672022006563686F3A0020746F6F206CC9
:1007B0006F6E6720657874727573696F6E207072E2
:1007C0006576656E7465640020636F6C642065787F
:1007D00074727573696F6E2070726576656E74657C
:1007E000640045303A20005A3A2000593A20005817
:1007F0003A20004D53312C4D53322050696E730A0C
:100800000024F404D9201BC40C5C0E9804C4095FB6
:100810000265077101F405F900FB04B30048048781
:1008200000C10369005803550003034500BE023AA6
:10083000008402310053022A00290225000402200C
:1008400000E4011C00C8011900AF01170098011451
:100850000084011300710110006101100051010EAC
:100860000043010D0036010B002B010B0020010B92
:1008700000150109000C01090003010800FB000834
:1008800000F3000800EB000700E4000600DE0006AD
:1008900000D8000600D2000600CC000500C7000505
:1008A00000C2000500BD000400B9000400B500044A
:1008B00000B1000400AD000400A9000400A500037D
:1008C00000A20003009F0004009B000300980003A7
:1008D000009500020093000300900003008D0002C9
:1008E000008B0003008800020086000200840003E1
:1008F00000810002007F0002007D0002007B0002F8
:100900000079000200770001007600020074000206
:100910000072000100710002006F0002006D000112
:10092000006C0002006A000100690002006700011B
:100930000066000100650001006400020062000121
:100940000061000100600001005F0002005D000125
:10095000005C0001005B0001005A00010059000129
:100960000058000100570001005600010055000129
:100970000054000100530000005300010052000128
:100980000051000100500001004F0001004E000026
:10099000004E0001004D0001004C0001004B000022
:1009A000004B0001004A000100490001004800001E
:1009B0000048000100470001004600000046000119
:1009C0000045000000450001004400010043000014
:1009D000004300010042000000420001004100000D
:1009E0000041000100400001003F0000003F000105
:1009F000003E0000003E0001003D0000003D0001FF
:100A0000003C0000003C0000003C0001003B0000F6
:100A1000003B0001003A0000003A000100390000EC
:100A200000390001003800000038000000380001E3
:100A300000370000003700010036000000360000DB
:100A400000360001003500000035000000350001CF
:100A500000340000003400000034000100330000C6
:100A600000330000003300010032000000320000BB
:100A700000320001003100000031000000310001AF
:100A8000003000000030000000300001002F0000A6
:100A9000002F0000002F0000002F0001002E00009A
:100AA000002E0000002E0001002D0000002D00008F
:100AB000002D0000002D0001002C0000002C000083
:100AC000002C0000002C0001002B0000002B000077
:100AD000002B0000002B0001002A0000002A00006B
:100AE000002A0000002A000100290000002900005F
:100AF0000029000000290000002900010028000052
:100B00000028000000280000002800000028000144
:100B10000027000000270000002700000027000039
:100B2000002700010026000000260000002600002B
:100B3000002600000026000100250000002500001E
:100B40000025000000250000002500000025000110
:100B50000024000000240000002400000024000005
:100B600000240001002300000023000000230000F7
:100B700000230000002300000023000000230001E8
:100B800000220000002200000022000000220000DD
:100B900000220000002200010021000000210000CE
:100BA00000210000002100000021000000210000C1
:100BB00000210001002000000020000000200000B3
:100BC00000200000002000000020000000200000A5
:100BD00000200001001F0000001F0000001F000097
:100BE000001F0000001F0000001F0000001F000188
:100BF000001E0000001E0000001E0000001E00007D
:100C00000024F4D43050C38E20C2A24017828B70CF
:100C100011127A910D816CD90AA861E108C7586652
:100C200007615143061E4B5D05C145A7041A4111DA
:100C300004093D9803713931034036DB0265339175
:100C400002D4305402802E1D02632CEE01752AC599
:100C500001B028A001102781018F2564012B244BAE
:100C600001E0223401AC211F018D200D01801FFC09
:100C700000841EED00971DDF00B81CD200E61BC6E5
:100C800000201BBC00641AB200B219A8000A19A007
:100C9000006A189900D117910040178B00B516848F
:100CA0000031167E00B31579003A157300C7146F32
:100CB0000058146A00EE1366008813630025135E63
:100CC00000C7125B006C12570015125400C111517D
:100CD0000070114F0021114B00D61049008D1047B4
:100CE000004610440002104200C00F4000800F3E3A
:100CF00000420F3C00060F3B00CB0E3800930E372E
:100D0000005C0E3500270E3400F30D3200C10D31AA
:100D100000900D3000600D2E00320D2D00050D2CC1
:100D200000D90C2B00AE0C2900850C29005C0C2787
:100D300000350C27000E0C2600E80B2400C40B2401
:100D400000A00B23007D0B23005A0B2100390B213F
:100D500000180B2000F80A1F00D90A1E00BB0A1E4B
:100D6000009D0A1D00800A1D00630A1C00470A1B23
:100D7000002C0A1B00110A1A00F7091A00DD0919D4
:100D800000C4091900AB091900920917007B091862
:100D900000630917004C09160036091600200916D1
:100DA000000A091500F5081500E0081400CC081425
:100DB00000B8081400A4081400900813007D08125D
:100DC000006B08130058081200460812003408117E
:100DD00000230811001208110001081100F007108B
:100DE00000E0071000D0071000C0071000B0070F88
:100DF00000A107100091070E0083070F0074070F72
:100E00000065070E0057070E0049070E003B070D4F
:100E1000002E070E0020070D0013070D0006070D1A
:100E200000F9060C00ED060D00E0060C00D4060CDF
:100E300000C8060C00BC060C00B0060C00A4060B93
:100E40000099060C008D060B0082060B0077060B3E
:100E5000006C060B0061060A0057060B004C060AE0
:100E60000042060A0038060A002E060A0024060A76
:100E7000001A060A001006090007060A00FD050907
:100E800000F4050900EB050900E2050900D9050990
:100E900000D0050900C7050900BE050900B5050811
:100EA00000AD050800A50509009C0508009405088B
:100EB000008C050800840508007C050800740508FE
:100EC000006C050700650508005D0507005605086C
:100ED000004E0507004705070040050800380507D4
:100EE00000310507002A050700230507001C050639
:100EF00000160507000F0507000805060002050794
:100F000000FB040600F5040700EE040600E80406F2
:100F100000E2040700DB040600D5040600CF040647
:100F200000C9040600C3040600BD040600B7040699
:100F300000B1040500AC040600A6040600A00405E8
:100F4000009B04060095040500900406008A040531
:100F50000085040500800406007A04050075040578
:100F600000700405006B04050066040500610405BB
:100F7000005C04050057040500520405004D0405FB
:100F80000048040500430405003E0404003A04053B
:100F90000035040500300404002C04050027040477
:100FA00000230405001E0404001A040400160405AE
:100FB00000110404000D04040009040500040404E5
:100FC0000000040400FC030400F8030400F403041C
:100FD00000F0030400EC030400E8030400E403044D
:100FE00000E0030400DC030400D8030400D403047D
:100FF00000D0030400CC030400C8030300C50303AE
:10100000006563686F3A00205A3A0020593A002080
:10101000583A00656E6473746F7073206869743A2F
:1010200020004572726F723A0054656D706572618E
:1010300074757265206865617465642062656420FA
:101040007377697463686564206F66662E204D410E
:101050005854454D50207472696767657265642005
:101060002121003A20457874727564657220737787
:10107000697463686564206F66662E204D494E541E
:10108000454D502074726967676572656420210060
:101090003A20457874727564657220737769746359
:1010A000686564206F66662E204D415854454D504A
:1010B00020747269676765726564202100202D20A5
:1010C000496E76616C6964206578747275646572C6
:1010D000206E756D62657220210070012C019001F7
:1010E0002701B0012201C0011D01F0011801100209
:1010F000130130020E016002090190020401C002D6
:10110000FF000003FA004003F5008003F000D00365
:10111000EB002004E6007004E100E004DC00400580
:10112000D700C005D2004006CD00D006C800800719
:10113000C3003008BE00F008B900C009B400B00A0E
:10114000AF00B00BAA00D00CA500000EA000500FFD
:101150009B00C01096005012910000148C00C01526
:101160008700B0178200B0197D00D01B7800001EE8
:10117000730040206E0090226900F0246400402734
:101180005F0090295A00E02B5500102E50002030AF
:101190004B0010324600E033410090353C001037E0
:1011A000370070383200A0392D00B03A2800A03B3B
:1011B0002300603C1E00103D1900903D1400103EBD
:1011C0000F00703E0A00C03E0500003F000050497D
:1011D00044204175746F74756E652066696E69731D
:1011E000686564212050757420746865206C617393
:1011F00074204B702C204B6920616E64204B64205E
:10120000636F6E7374616E74732066726F6D2061AC
:10121000626F766520696E746F20436F6E666967D2
:1012200075726174696F6E2E680050494420417573
:10123000746F74756E65206661696C6564212074D5
:10124000696D656F75740020403A006F6B20543AE9
:10125000006F6B20423A00504944204175746F740E
:10126000756E65206661696C6564212054656D70DA
:101270006572617475726520746F6F206869676844
:1012800000204B643A2000204B693A2000204B702C
:101290003A200020436C61737369632050494420F5
:1012A000002054753A2000204B753A2000206D61D3
:1012B000783A2000206D696E3A200020643A2000C0
:1012C00020626961733A2000000021002400270099
:1012D0002A0000002200250028002B00000020002A
:1012E0002300260029000202020202020202040474
:1012F00004040404040403030303030303030101BC
:1013000001010101010101020408102040800102D5
:101310000408102040800102040810204080804012
:10132000201008040201000000010200000000007B
:101330000000040307060000000000000000000099
:10134000000000000000494E46494E4954594E41A4
:101350004ECDCCCC3D0AD7233C17B7D13877CC2B18
:10136000329595E6241FB14F0A000020410000C8C5
:101370004200401C4620BCBE4CCA1B0E5AAEC59D46
:1013800074001819C55F11241FBECFEFD0E4DEBF73
:10139000CDBF13E0A0E0B1E0E8E2F3ED00E00BBF69
:1013A00002C007900D92A632B107D9F71BBE1CE010
:1013B000A6E2B3E001C01D92AB37B107E1F713E13C
:1013C000C6E8D3E104C02297FE010E944C69C238EE
:1013D000D107C9F70E942C640C9492690C94000008
:1013E000A0E0B0E0E6EFF9E00C946169EC015B018C
:1013F0006115710519F0FB0191838083F9908F2DA0
:1014000090E00E945069892BC9F7FDE2FF1621F494
:10141000F990EE24E39405C02BE2F21609F4F9905A
:10142000EE248E0101501040C80166E473E143E0F0
:1014300050E00E947F0C892B01F58E010E5F1F4F3B
:10144000C80169E473E145E050E00E947F0C892BFC
:1014500019F48E01095F1F4FA114B10419F0F501B1
:1014600011830083E0FC04C070E090E080E814C0C9
:1014700070E090E080E86FEF08C1C8016EE473E1AE
:1014800043E050E00E947F0C892B69F4A114B10461
:1014900029F470E090E080EC6FE7F7C02296F50148
:1014A000D183C083F6CF8824992440E050E060E0E7
:1014B00070E0EF2DE053EA30A0F5F2E0EF2A8E2D38
:1014C00090E09C0128703070E2FE06C0232B79F575
:1014D0000894811C911C2BC0232B19F008948108BF
:1014E0009108DB01CA0112E0880F991FAA1FBB1FD8
:1014F0001A95D1F7480F591F6A1F7B1F440F551FBC
:10150000661F771F4E0F511D611D711D483929E956
:10151000520729E9620729E1720748F084E0E82AC6
:1015200006C0EE3F31F4E3FC39C098E0E92AF990B7
:10153000C0CFE53311F0E53189F529912D3219F449
:10154000E0E1EE2A05C02B3219F081E090E003C003
:10155000299182E090E0E22FE053EA3018F0C81BB6
:10156000D90B1CC020E030E0FCE020383F075CF4E1
:10157000C901880F991F880F991F280F391F220F43
:10158000331F2E0F311DE991E053EA3068F3E4FE7A
:1015900003C0309521953F4F820E931ECE2CDD2443
:1015A000E1FE07C0A114B10421F02197F501D18318
:1015B000C083CB01BA010E94B5657B018C01F3E0C9
:1015C000CF22DD2423E0C216D10421F417FB1095AD
:1015D00017F9109557016801C801B70120E030E004
:1015E00040E050E00E941565882309F44AC097FE48
:1015F0000DC025E6E22E23E1F22E9094819491080D
:101600009394C0E2D0E000E010E012C09DE7E92E24
:1016100093E1F92EF6CFF70125913591459154913B
:10162000C601B5010E94F5675B016C018C1A9D0A29
:101630008C169D0684F7D595C7950F5F1F4F063012
:10164000110529F08CEF9FEFE80EF91EF1CFC501CF
:10165000D6017C018D018C2D880F8D2D881F8F3F29
:1016600051F0C601B50120E030E040E050E00E94BA
:101670001565882331F482E290E090937A0C809390
:10168000790C7E2D9F2D802F612F272F392F482FEA
:10169000562FB901CA01CDB7DEB7ECE00C947D69D5
:1016A0002F923F925F926F927F928F929F92AF9212
:1016B000BF92CF92DF92EF92FF920F931F93CF933F
:1016C000DF938C011B01EA016115710519F0FB0123
:1016D00091838083209749F0CE010297839728F069
:1016E00020E030E040E050E0F6C0F801A1908F012A
:1016F0008A2D90E00E945069892BB9F7FDE2AF1660
:1017000031F4F801A1908F015524539407C0FBE2F6
:10171000AF1619F4F801A1908F015524209719F004
:10172000C031D105C1F4F0E3AF1679F4F80180813E
:10173000883711F0883549F4F801A1800E5F1F4FFA
:10174000F2E05F2AC0E1D0E006C0209721F480E3F8
:10175000A816E9F427C0C830D10531F1C930D10548
:1017600024F4C230D10531F50CC0CA30D10589F05E
:10177000C031D105F9F4C12CD12CE12CB8E0FB2EFD
:1017800028C0C12CD12CE12CA0E4FA2E22C0CAE042
:10179000D0E0FCECCF2EFCECDF2EFCECEF2EFCE0DE
:1017A000FF2E17C0C8E0D0E0C12CD12CE12CE0E125
:1017B000FE2E0FC09E01442737FD4095542F60E058
:1017C00070E080E090E80E940D69C901DA016C01C7
:1017D0007D0120E030E040E050E060E03E01882400
:1017E00077FC8094982C70EDB72EBA0CE9E0EB15DD
:1017F00070F48A2D81548A3118F499ECB92E06C000
:101800008A2D81568A3150F589EAB82EBA0C8B2D73
:1018100090E08C179D0714F56F3FE1F0C216D306D8
:10182000E406F506B0F0CA01B901A40193010E94D3
:10183000C7689B01AC012B0D311D411D511D21308D
:10184000F0E03F07F0E04F07F0E85F0710F461E0D9
:1018500001C06FEFF801A1908F01C5CF21143104B1
:1018600081F0662331F001501040F10111830083B3
:1018700008C051FE1AC002501040F10111830083CC
:1018800014C067FF12C050FC05C02FEF3FEF4FEFB1
:101890005FE704C020E030E040E050E882E290E002
:1018A00090937A0C8093790C16C050FE08C0509526
:1018B0004095309521953F4F4F4F5F4F0CC057FFDC
:1018C0000AC082E290E090937A0C8093790C2FEF1B
:1018D0003FEF4FEF5FE7B901CA01DF91CF911F9151
:1018E0000F91FF90EF90DF90CF90BF90AF909F90BF
:1018F0008F907F906F905F903F902F900895FB01A5
:10190000DC014150504088F08D9181341CF08B35C2
:101910000CF4805E659161341CF06B350CF4605EF4
:10192000861B611171F3990B0895881BFCCFFB0195
:1019300055915523A9F0BF01DC014D914517411187
:10194000E1F759F4CD010590002049F04D91401583
:101950004111C9F3FB014111EFCF81E090E0019704
:101960000895FC018191861721F08823D9F79927E2
:1019700008953197CF010895FB01DC018D9101900D
:1019800080190110D9F3990B0895FB01DC01415036
:10199000504030F08D910190801919F40020B9F772
:1019A000881B990B0895AEE0B0E0E9EDFCE00C94E3
:1019B00069690D891E898EE08C831A8309838FEFF4
:1019C0009FE79E838D839E01275E3F4FCE01019648
:1019D0006F89788DA9010E94F70C2F813885020F3D
:1019E000131FF80110822E96E4E00C948569ABE099
:1019F000B0E0EDEFFCE00C945B693C012B015A0177
:101A0000FC0117821682838181FD03C06FEF7FEF97
:101A1000C6C19AE0892E1E010894211C311CF301D5
:101A20002381F20123FD859123FF81912F018823DA
:101A300009F4B2C1853239F423FD859123FF8191E8
:101A40002F01853229F490E0B3010E94EA0EE7CF1E
:101A5000982FFF24EE249924FFE1FF15D0F09B324C
:101A600069F09C3228F4903259F0933291F40EC010
:101A70009D3249F0903369F441E024C052E0F52AE8
:101A800084E0F82A28C098E0F92A25C0E0E1FE2A7F
:101A900022C0F7FC29C0892F80538A3070F4F6FEEB
:101AA00005C0989C902C1124980E15C0E89CE02C41
:101AB0001124E80EF0E2FF2A0EC09E3229F4F6FC53
:101AC0006BC140E4F42A07C09C3619F450E8F52AAB
:101AD00002C0983649F4F20123FD959123FF9191BC
:101AE0002F01992309F0B8CF892F8554833018F03E
:101AF0008052833038F444E050E0A40EB51E5FE31A
:101B000059830FC0933631F0933779F0933509F04C
:101B100056C020C0F5018081898342E050E0A40EC8
:101B2000B51E610101E010E012C0F501C080D18056
:101B3000F6FC03C06FEF7FEF02C0692D70E042E05A
:101B400050E0A40EB51EC6010E94DF0E8C015FE7B7
:101B5000F52214C0F501C080D180F6FC03C06FEF00
:101B60007FEF02C0692D70E042E050E0A40EB51E88
:101B7000C6010E94D40E8C0150E8F52AF3FE07C07E
:101B80001AC080E290E0B3010E94EA0EEA948E2D22
:101B900090E008171907A8F30EC0F601F7FC85912D
:101BA000F7FE81916F0190E0B3010E94EA0EE1100F
:101BB000EA94015010400115110579F7EAC09436F6
:101BC00011F0993669F5F7FE08C0F50120813181E1
:101BD0004281538184E090E00AC0F50180819181C7
:101BE0009C01442737FD4095542F82E090E0A80ED9
:101BF000B91E9FE6F92257FF09C0509540953095D0
:101C000021953F4F4F4F5F4FE0E8FE2ACA01B901CF
:101C1000A1012AE030E00E94160FD82ED21840C051
:101C2000953729F41F2D1F7E2AE030E01DC01F2D9F
:101C3000197F9F3661F0903720F4983509F0ACC0D9
:101C40000FC0903739F0983709F0A6C004C028E0DB
:101C500030E00AC0106114FD146020E130E004C0DF
:101C600014FD166020E132E017FF08C0F501608125
:101C700071818281938144E050E008C0F501808148
:101C80009181BC0180E090E042E050E0A40EB51EDE
:101C9000A1010E94160FD82ED2188FE7F82EF1223C
:101CA000F6FE0BC05EEFF522D91438F4F4FE07C03F
:101CB000F2FC05C08FEEF82202C01D2D01C0192DC7
:101CC000F4FE0DC0FE01ED0DF11D8081803319F48D
:101CD00099EEF92208C01F5FF2FE05C003C08F2DE8
:101CE000867809F01F5F0F2DF3FC14C0F0FE0FC0C3
:101CF0001E1510F09D2C0BC09D2C9E0C911A1E2DB4
:101D000006C080E290E0B3010E94EA0E1F5F1E153C
:101D1000C0F304C01E1510F4E11A01C0EE2404FF44
:101D20000FC080E390E0B3010E94EA0E02FF1DC0E5
:101D300001FD03C088E790E00EC088E590E00BC08D
:101D4000802F867891F001FF02C08BE201C080E213
:101D5000F7FC8DE290E0B3010E94EA0E06C080E33A
:101D600090E0B3010E94EA0E9A94D914C0F3DA9479
:101D7000F101ED0DF11D808190E0B3010E94EA0EAA
:101D8000DD20A9F706C080E290E0B3010E94EA0ED0
:101D9000EA94EE20C1F743CEF30166817781CB014F
:101DA0002B96E2E10C947769FC010590615070403C
:101DB0000110D8F7809590958E0F9F1F0895FC0114
:101DC0006150704001900110D8F7809590958E0F6A
:101DD0009F1F08950F931F93CF93DF938C01EB0107
:101DE0008B8181FF1BC082FF0DC02E813F818C81C2
:101DF0009D812817390764F4E881F9810193F983FB
:101E0000E88306C0E885F985802F0995892B31F490
:101E10008E819F8101969F838E8302C00FEF1FEFFB
:101E2000C801DF91CF911F910F910895FA01AA2760
:101E3000283051F1203181F1E8946F936E7F6E5F0D
:101E40007F4F8F4F9F4FAF4FB1E03ED0B4E03CD0BB
:101E5000670F781F891F9A1FA11D680F791F8A1F9E
:101E6000911DA11D6A0F711D811D911DA11D20D005
:101E700009F468943F912AE0269F11243019305DBF
:101E80003193DEF6CF010895462F4770405D4193B0
:101E9000B3E00FD0C9F7F6CF462F4F70405D4A33FD
:101EA00018F0495D31FD4052419302D0A9F7EACFC5
:101EB000B4E0A6959795879577956795BA95C9F7F4
:101EC00000976105710508959B01AC010A2E0694E7
:101ED0005795479537952795BA95C9F7620F731FA0
:101EE000841F951FA01D0895DF93CF93CDB7DEB754
:101EF00066970FB6F894DEBF0FBECDBF809100018C
:101F000090910101A0910201B09103018F87988BFC
:101F1000A98BBA8BFE013F9644E650E08081F99987
:101F2000FECF1FBA52BD41BD80BD0FB6F894FA9ADC
:101F3000F99A0FBE4F5F5F4F4836510511F0319649
:101F4000EDCFECECF5E08081F999FECF1FBA52BDE0
:101F500041BD80BD0FB6F894FA9AF99A0FBE4F5F53
:101F60005F4F4837510511F03196EDCFECEBF5E0BE
:101F70008081F999FECF1FBA52BD41BD80BD0FB619
:101F8000F894FA9AF99A0FBE4F5F5F4F483851059F
:101F900011F03196EDCFECEDF5E08081F999FECFAF
:101FA0001FBA52BD41BD80BD0FB6F894FA9AF99A96
:101FB0000FBE4F5F5F4F4839510511F03196EDCF9D
:101FC000E0EFF5E08081F999FECF1FBA52BD41BD27
:101FD00080BD0FB6F894FA9AF99A0FBE4F5F5F4F23
:101FE0004C39510511F03196EDCFE4EFF5E08081E9
:101FF000F999FECF1FBA52BD41BD80BD0FB6F8940E
:10200000FA9AF99A0FBE4F5F5F4F403A510511F0AF
:102010003196EDCFECEEF5E08081F999FECF1FBA55
:1020200052BD41BD80BD0FB6F894FA9AF99A0FBE21
:102030004F5F5F4F443A510511F03196EDCFE4E028
:10204000F6E08081F999FECF1FBA52BD41BD80BD37
:102050000FB6F894FA9AF99A0FBE4F5F5F4F483A5D
:10206000510511F03196EDCFE8EBF5E08081F9995B
:10207000FECF1FBA52BD41BD80BD0FB6F894FA9A8B
:10208000F99A0FBE4F5F5F4F4C3A510511F03196F0
:10209000EDCFE8EFF5E08081F999FECF1FBA52BD90
:1020A00041BD80BD0FB6F894FA9AF99A0FBE4F5F02
:1020B0005F4F403B510511F03196EDCFECEFF5E06D
:1020C0008081F999FECF1FBA52BD41BD80BD0FB6C8
:1020D000F894FA9AF99A0FBE4F5F5F4F443B51054F
:1020E00011F03196EDCFE0E0F6E08081F999FECF76
:1020F0001FBA52BD41BD80BD0FB6F894FA9AF99A45
:102100000FBE4F5F5F4F483B510511F03196EDCF49
:10211000E1ECF3E08081F999FECF1FBA52BD41BDD9
:1021200080BD0FB6F894FA9AF99A0FBE4F5F5F4FD1
:10213000443C510511F03196EDCF24EB30E03A8369
:10214000298386E490E09C838B838FEF90E09E83CD
:102150008D8380EF90E098878F8383E790E09A8764
:1021600089873C872B87FE0131968081F999FECFC4
:102170001FBA52BD41BD80BD0FB6F894FA9AF99AC4
:102180000FBE4F5F5F4F463C510571F7FE0133961E
:102190008081F999FECF1FBA52BD41BD80BD0FB6F7
:1021A000F894FA9AF99A0FBE4F5F5F4F483C510579
:1021B00011F03196EDCFFE0135968081F999FECF71
:1021C0001FBA52BD41BD80BD0FB6F894FA9AF99A74
:1021D0000FBE4F5F5F4F4A3C510511F03196EDCF76
:1021E000FE0137968081F999FECF1FBA52BD41BDDD
:1021F00080BD0FB6F894FA9AF99A0FBE4F5F5F4F01
:102200004C3C510511F03196EDCFFE01399680819D
:10221000F999FECF1FBA52BD41BD80BD0FB6F894EB
:10222000FA9AF99A0FBE4F5F5F4F4E3C510511F07D
:102230003196EDCFFE013B968081F999FECF1FBA12
:1022400052BD41BD80BD0FB6F894FA9AF99A0FBEFF
:102250004F5F5F4F403D510511F03196EDCFECEDF2
:10226000F3E08081F999FECF1FBA52BD41BD80BD18
:102270000FB6F894FA9AF99A0FBE4F5F5F4F443D3C
:10228000510511F03196EDCFE4E9F2E08081F99942
:10229000FECF1FBA52BD41BD80BD0FB6F894FA9A69
:1022A000F99A0FBE4F5F5F4F483D510511F03196CF
:1022B000EDCFE8E9F2E08081F999FECF1FBA52BD77
:1022C00041BD80BD0FB6F894FA9AF99A0FBE4F5FE0
:1022D0005F4F4C3D510511F03196EDCFECE9F2E046
:1022E0008081F999FECF1FBA52BD41BD80BD0FB6A6
:1022F000F894FA9AF99A0FBE4F5F5F4F403E51052E
:1023000011F03196EDCF80E290E09E878D87FE013F
:102310003D968081F999FECF1FBA52BD41BD80BD67
:102320000FB6F894FA9AF99A0FBE413E510521F082
:10233000319641EE50E0EDCF80910401909105017E
:10234000A0910601B09107018B8B9C8BAD8BBE8B4E
:10235000FE01739684E690E02081F999FECF1FBAC2
:1023600092BD81BD20BD0FB6F894FA9AF99A0FBEBE
:102370008736910519F001963196EECFE7EDF0E042
:10238000949108C08091C00085FFFCCF9093C60057
:10239000319694919923B1F7E1EEF2E0949108C05F
:1023A0008091C00085FFFCCF9093C6003196949138
:1023B0009923B1F78091C00085FFFCCF8AE080931C
:1023C000C60066960FB6F894DEBF0FBECDBFCF91A4
:1023D000DF910895DF93CF93CDB7DEB7E0970FB6C7
:1023E000F894DEBF0FBECDBFDE011196EAECF2E03D
:1023F00080E101900D928150E1F7DE015196EAEB08
:10240000F2E080E101900D928150E1F7DE019196BA
:10241000EAEAF2E080E101900D928150E1F78981D2
:102420009A81AB81BC818093CC059093CD05A0931C
:10243000CE05B093CF0589899A89AB89BC898093F1
:10244000BC059093BD05A093BE05B093BF0589A1BF
:102450009AA1ABA1BCA18093DC059093DD05A0936C
:10246000DE05B093DF058D819E81AF81B8858093B5
:10247000D0059093D105A093D205B093D3058D8953
:102480009E89AF89B88D8093C0059093C105A093B4
:10249000C205B093C3058DA19EA1AFA1B8A580933D
:1024A000E0059093E105A093E205B093E3058985EB
:1024B0009A85AB85BC858093D4059093D505A09370
:1024C000D605B093D705898D9A8DAB8DBC8D809341
:1024D000C4059093C505A093C605B093C70589A50B
:1024E0009AA5ABA5BCA58093E4059093E505A093C0
:1024F000E605B093E7058D859E85AF85B889809305
:10250000D8059093D905A093DA05B093DB058D8D9E
:102510009E8DAF8DB8A18093C8059093C905A093F7
:10252000CA05B093CB058DA59EA5AFA5B8A980938C
:10253000E8059093E905A093EA05B093EB050E94A6
:10254000CA3B80E090E8ABE3B5E48093F00590935C
:10255000F105A093F205B093F3058093F4059093F1
:10256000F505A093F605B093F70520E030E040E0D4
:1025700050E02093EC053093ED054093EE05509329
:10258000EF0580E29EE4A0E0B0E08093B805909370
:10259000B905A093BA05B093BB0520930406309308
:1025A0000506409306065093070680E090E0A0E2FF
:1025B000B1E48093F8059093F905A093FA05B093E0
:1025C000FB058DEC9CECACECBEE38093FC0590939A
:1025D000FD05A093FE05B093FF0580E090E0A0E824
:1025E000B0E48093000690930106A0930206B09396
:1025F00003062093C9033093CA034093CB0350933F
:10260000CC032093C5033093C6034093C703509374
:10261000C8032093C1033093C2034093C303509374
:10262000C40386E696E6A6EAB1E48093940290930A
:102630009502A0939602B093970261EE7AE784ED3B
:102640009FE30E94A855609398027093990280932B
:102650009A0290939B0263E373E383E892E40E94FF
:10266000B65560939C0270939D0280939E02909356
:102670009F020E94C65480E090E0A0E8BFE38093F0
:10268000A0029093A102A093A202B093A302E7ED4F
:10269000F0E0949108C08091C00085FFFCCF90933A
:1026A000C600319694919923B1F7EDEDF0E0949145
:1026B00008C08091C00085FFFCCF9093C600319682
:1026C00094919923B1F78091C00085FFFCCF8AE0F7
:1026D0008093C600E0960FB6F894DEBF0FBECDBF64
:1026E000CF91DF910895CF93DF93C7EDD0E0FE0146
:1026F000949108C08091C00085FFFCCF9093C600E4
:10270000319694919923B1F7E1EDF2E0949108C0EC
:102710008091C00085FFFCCF9093C60031969491C4
:102720009923B1F78091C00085FFFCCF8AE08093A8
:10273000C600FE019491E7EDF0E008C08091C00072
:1027400085FFFCCF9093C600319694919923B1F701
:102750004091CC055091CD056091CE057091CF058B
:1027600089EC92E00E947E1F4091D0055091D105E6
:102770006091D2057091D30586EC92E00E947E1F95
:102780004091D4055091D5056091D6057091D7053B
:1027900083EC92E00E947E1F4091D8055091D905AC
:1027A0006091DA057091DB0580EC92E00E947E1F5B
:1027B000E8E0F1E007C08091C00085FFFCCF3196D2
:1027C0009093C60090819923B1F78091C00085FF56
:1027D000FCCF8AE08093C600FE019491E7EDF0E023
:1027E00008C08091C00085FFFCCF9093C600319651
:1027F00094919923B1F7E6EAF2E0949108C08091B0
:10280000C00085FFFCCF9093C60031969491992328
:10281000B1F78091C00085FFFCCF8AE08093C600AD
:10282000FE019491E7EDF0E008C08091C00085FFC3
:10283000FCCF9093C600319694919923B1F74091C3
:10284000BC055091BD056091BE057091BF058DE935
:1028500092E00E947E1F4091C0055091C105609199
:10286000C2057091C3058AE992E00E947E1F4091E3
:10287000C4055091C5056091C6057091C70587E9EB
:1028800092E00E947E1F4091C8055091C905609159
:10289000CA057091CB0584E992E00E947E1FE8E0B2
:1028A000F1E007C08091C00085FFFCCF3196909386
:1028B000C60090819923B1F78091C00085FFFCCFBD
:1028C0008AE08093C600FE019491E7EDF0E008C035
:1028D0008091C00085FFFCCF9093C6003196949103
:1028E0009923B1F7E6E7F2E0949108C08091C00027
:1028F00085FFFCCF9093C600319694919923B1F750
:102900008091C00085FFFCCF8AE08093C600FE0165
:102910009491E7EDF0E008C08091C00085FFFCCF06
:102920009093C600319694919923B1F74091DC05BC
:102930005091DD056091DE057091DF058DE692E036
:102940000E94921F4091E0055091E1056091E205DF
:102950007091E3058AE692E00E94921F4091E4059F
:102960005091E5056091E6057091E70587E692E0F4
:102970000E94921F4091E8055091E9056091EA0597
:102980007091EB0584E692E00E94921FE8E0F1E08E
:1029900007C08091C00085FFFCCF31969093C600A0
:1029A00090819923B1F78091C00085FFFCCF8AE028
:1029B0008093C600FE019491E7EDF0E008C080919D
:1029C000C00085FFFCCF9093C60031969491992367
:1029D000B1F7EFE2F2E0949108C08091C00085FF6A
:1029E000FCCF9093C600319694919923B1F78091D2
:1029F000C00085FFFCCF8AE08093C600FE01949161
:102A0000E7EDF0E008C08091C00085FFFCCF909317
:102A1000C600319694919923B1F74091F0055091F9
:102A2000F1056091F2057091F30586E292E00E9453
:102A30007E1F4091F4055091F5056091F605709167
:102A4000F70583E292E00E947E1FE8E0F1E007C014
:102A50008091C00085FFFCCF31969093C600908195
:102A60009923B1F78091C00085FFFCCF8AE0809365
:102A7000C600FE019491E7EDF0E008C08091C0002F
:102A800085FFFCCF9093C600319694919923B1F7BE
:102A9000E0E7F1E0949108C08091C00085FFFCCF91
:102AA0009093C600319694919923B1F78091C0001C
:102AB00085FFFCCF8AE08093C600FE019491E7ED8C
:102AC000F0E008C08091C00085FFFCCF9093C60065
:102AD000319694919923B1F74091EC055091ED0511
:102AE0006091EE057091EF0587E691E00E947E1FF0
:102AF0004091040650910506609106067091070604
:102B000084E691E00E947E1F4091B8055091B9057E
:102B10006091BA057091BB0581E691E00E94921F19
:102B20004091F8055091F9056091FA057091FB0507
:102B30008EE591E00E947E1F4091FC055091FD05BD
:102B40006091FE057091FF058BE591E00E947E1F6C
:102B500040910006509101066091020670910306B3
:102B600088E591E00E947E1FE8E0F1E007C08091D7
:102B7000C00085FFFCCF31969093C60090819923C9
:102B8000B1F78091C00085FFFCCF8AE08093C6003A
:102B9000FE019491E7EDF0E008C08091C00085FF50
:102BA000FCCF9093C600319694919923B1F7E6E457
:102BB000F1E0949108C08091C00085FFFCCF909314
:102BC000C600319694919923B1F78091C00085FF9A
:102BD000FCCF8AE08093C600FE019491E7EDF0E01F
:102BE00008C08091C00085FFFCCF9093C60031964D
:102BF00094919923B1F74091C1035091C203609120
:102C0000C3037091C4038DE391E00E947E1F409145
:102C1000C5035091C6036091C7037091C8038AE34E
:102C200091E00E947E1F4091C9035091CA036091B8
:102C3000CB037091CC0387E391E00E947E1FE8E014
:102C4000F1E007C08091C00085FFFCCF31969093E2
:102C5000C60090819923B1F78091C00085FFFCCF19
:102C60008AE08093C600FE019491E7EDF0E008C091
:102C70008091C00085FFFCCF9093C600319694915F
:102C80009923B1F7E9E2F1E0949108C08091C00086
:102C900085FFFCCF9093C600319694919923B1F7AC
:102CA0008091C00085FFFCCF8AE08093C600FE01C2
:102CB0009491E7EDF0E008C08091C00085FFFCCF63
:102CC0009093C600319694919923B1F74091940264
:102CD0005091950260919602709197028FE191E078
:102CE0000E947E1F609198027091990280919A02D1
:102CF00090919B020E94AF55AB01BC018CE191E029
:102D00000E947E1F60919C0270919D0280919E02A4
:102D100090919F020E94BD55AB01BC0189E191E0F9
:102D20000E947E1FE8E0F1E007C08091C00085FFAF
:102D3000FCCF31969093C60090819923B1F7809192
:102D4000C00085FFFCCF8AE08093C600DF91CF9161
:102D500008950F931F93DF93CF93CDB7DEB7669798
:102D60000FB6F894DEBF0FBECDBF809104019091E5
:102D70000501A0910601B09107018B8B9C8BAD8B57
:102D8000BE8BFE013F9604E610E0F999FECF12BD1E
:102D900001BDF89A80B580830F5F1F4F083611057B
:102DA00011F03196F2CFCE014396BE01615F7F4FA5
:102DB00043E050E00E94C50C009709F096C1ECEC8E
:102DC000F5E0F999FECF12BD01BDF89A80B5808378
:102DD0000F5F1F4F0837110511F03196F2CFECEB62
:102DE000F5E0F999FECF12BD01BDF89A80B5808358
:102DF0000F5F1F4F0838110511F03196F2CFECED3F
:102E0000F5E0F999FECF12BD01BDF89A80B5808337
:102E10000F5F1F4F0839110511F03196F2CF0E9454
:102E2000CA3BE0EFF5E0F999FECF12BD01BDF89A7B
:102E300080B580830F5F1F4F0C39110511F031965B
:102E4000F2CFE4EFF5E0F999FECF12BD01BDF89A9B
:102E500080B580830F5F1F4F003A110511F0319646
:102E6000F2CFECEEF5E0F999FECF12BD01BDF89A74
:102E700080B580830F5F1F4F043A110511F0319622
:102E8000F2CFE4E0F6E0F999FECF12BD01BDF89A69
:102E900080B580830F5F1F4F083A110511F03196FE
:102EA000F2CFE8EBF5E0F999FECF12BD01BDF89A3B
:102EB00080B580830F5F1F4F0C3A110511F03196DA
:102EC000F2CFE8EFF5E0F999FECF12BD01BDF89A17
:102ED00080B580830F5F1F4F003B110511F03196C5
:102EE000F2CFECEFF5E0F999FECF12BD01BDF89AF3
:102EF00080B580830F5F1F4F043B110511F03196A1
:102F0000F2CFE0E0F6E0F999FECF12BD01BDF89AEC
:102F100080B580830F5F1F4F083B110511F031967C
:102F2000F2CFE1ECF3E0F999FECF12BD01BDF89AC2
:102F300080B580830F5F1F4F043C110511F031965F
:102F4000F2CFFE013196F999FECF12BD01BDF89A7C
:102F500080B580830F5F1F4F063C110599F7FE0176
:102F60003396F999FECF12BD01BDF89A80B58083E2
:102F70000F5F1F4F083C110511F03196F2CFFE0193
:102F80003596F999FECF12BD01BDF89A80B58083C0
:102F90000F5F1F4F0A3C110511F03196F2CFFE0171
:102FA0003796F999FECF12BD01BDF89A80B580839E
:102FB0000F5F1F4F0C3C110511F03196F2CFFE014F
:102FC0003996F999FECF12BD01BDF89A80B580837C
:102FD0000F5F1F4F0E3C110511F03196F2CFFE012D
:102FE0003B96F999FECF12BD01BDF89A80B580835A
:102FF0000F5F1F4F003D110511F03196F2CFECED40
:10300000F3E0F999FECF12BD01BDF89A80B5808337
:103010000F5F1F4F043D110511F03196F2CFE4E927
:10302000F2E0F999FECF12BD01BDF89A80B5808318
:103030000F5F1F4F083D110511F03196F2CFE8E9FF
:10304000F2E0F999FECF12BD01BDF89A80B58083F8
:103050000F5F1F4F0C3D110511F03196F2CFECE9D7
:10306000F2E0F999FECF12BD01BDF89A80B58083D8
:103070000F5F1F4F003E110511F03196F2CFFE0198
:103080003D96F999FECF12BD01BDF89A80B58083B7
:10309000013E110521F0319601EE10E0F2CF0E94C1
:1030A000C654E7EDF0E0949108C08091C00085FF20
:1030B000FCCF9093C600319694919923B1F7EFEF2E
:1030C000F0E0949108C08091C00085FFFCCF909300
:1030D000C600319694919923B1F78091C00085FF85
:1030E000FCCF8AE08093C60002C00E94EA110E94D1
:1030F000731366960FB6F894DEBF0FBECDBFCF91A7
:10310000DF911F910F9108951F920F920FB60F92AA
:103110000BB60F9211242F933F934F938F939F934E
:10312000EF93FF934091C600E091A603F091A703AF
:1031300031969F012F77307031978091A80390913D
:10314000A9032817390739F0EA5DFC4F4083309313
:10315000A7032093A603FF91EF919F918F914F9129
:103160003F912F910F900BBE0F900FBE0F901F90AD
:1031700018959A01AB01203081EE380780E04807AE
:1031800080E0580749F182E08093C00060E079E078
:103190008DE390E00E942F69215030404040504024
:1031A000CA01B90122E030E040E050E00E942F69FE
:1031B0003093C5002093C4008091C100806180934A
:1031C000C1008091C10088608093C1008091C100DE
:1031D00080688093C10008951092C00020E130E023
:1031E000E7CF2091A8033091A9038091A603909185
:1031F000A7038217930719F42FEF3FEF0EC0F901D1
:10320000EA5DFC4F80812F5F3F4F2F773070309306
:10321000A9032093A803282F30E0C90108958091C5
:10322000A8039091A9039093A7038093A603089500
:1032300008952F923F924F925F926F927F928F925A
:103240009F92AF92BF92CF92DF92EF92FF920F9335
:103250001F93DF93CF93CDB7DEB7A0970FB6F89447
:10326000DEBF0FBECDBF1C016A017B0141155105B8
:103270006105710549F440E350E060E070E020E052
:1032800030E00E94D21956C0882499245401422E5D
:1032900055246624772401E010E00C0F1D1F080D53
:1032A000191DC701B601A30192010E940D69F80121
:1032B00060830894811C911CA11CB11CC701B6013C
:1032C000A30192010E940D69C901DA016C017D011F
:1032D000C114D104E104F104F1F681E0E82EF12CEF
:1032E000EC0EFD1EE80CF91C3E010894611C711CDB
:1032F000D501C4010197A109B1096C01C818D90809
:1033000016C0F601EE0DFF1D40814A3010F4405DFD
:1033100001C0495C552747FD5095652F752FC101A8
:1033200020E030E00E94D2190894E108F1086E1400
:103330007F0439F7A0960FB6F894DEBF0FBECDBF5D
:10334000CF91DF911F910F91FF90EF90DF90CF9081
:10335000BF90AF909F908F907F906F905F904F90B5
:103360003F902F9008952115310539F48091C000C8
:1033700085FFFCCF4093C60008950E941919089557
:10338000EF92FF920F931F939A01E62EFF2400E025
:1033900010E0B801A7010E94B3191F910F91FF908F
:1033A000EF900895EF92FF920F931F93CF93DF93C7
:1033B000EC017A018B012115310539F48091C000AF
:1033C00085FFFCCFE092C6001BC02A303105B1F466
:1033D00077FF10C04DE250E060E070E020E030E0A8
:1033E0000E94D21910950095F094E094E11CF11C14
:1033F000011D111DCE01B801A7012AE00E94191973
:10340000DF91CF911F910F91FF90EF900895EF9270
:10341000FF920F931F937B019A010027F7FC009501
:10342000102FB801A7010E94D2191F910F91FF9090
:10343000EF9008950F931F938C014DE050E060E0F2
:1034400070E020E030E00E94D219C8014AE050E06C
:1034500060E070E020E030E00E94D2191F910F91EF
:103460000895CF92DF92EF92FF920F931F938C01FA
:103470009A016B01EE24FF24B701A6010E94B31943
:10348000C8010E941A1A1F910F91FF90EF90DF90D0
:10349000CF9008959F92AF92BF92CF92DF92EF921A
:1034A000FF920F931F93CF93DF93EC017A018B016F
:1034B000922ECB01BA0120E030E040E050E00E94C3
:1034C000156588236CF4CE014DE250E060E070E0B9
:1034D00020E030E00E94D21917FB109517F91095E3
:1034E00020E030E040E05FE3AA240BC0CA01B9014C
:1034F00020E030E040E251E40E941C659B01AC01F9
:10350000A394A91498F3C801B7010E943C647B01FD
:103510008C010E9489655B016C010E94B5659B016D
:10352000AC01C801B7010E943B647B018C01CE0154
:10353000B601A5012AE030E00E94B3199920A1F15B
:10354000E9E0F1E007C08091C00085FFFCCF319633
:103550009093C60090819923B1F726C0C801B701A6
:1035600020E030E040E251E40E94F5677B018C01ED
:103570000E9484655B016C01CC24B7FCC094DC2CF8
:10358000CE01B601A5012AE030E00E94D219C601A1
:10359000B5010E94B7659B01AC01C801B7010E944B
:1035A0003B647B018C019A949920C1F6DF91CF9105
:1035B0001F910F91FF90EF90DF90CF90BF90AF9051
:1035C0009F9008950E944A1A0895EF92FF920F93D8
:1035D0001F93CF93DF93EC01E0906902F0906A02B1
:1035E00000916B0210916C02688179818A819B81C4
:1035F000A80197010E942367181624F4E882F98233
:103600000A831B83E0906D02F0906E0200916F02BE
:10361000109170026C817D818E819F81A80197013C
:103620000E942367181624F4EC82FD820E831F8308
:10363000E0907102F0907202009173021091740296
:10364000688579858A859B85A80197010E942367F3
:10365000181624F4E886F9860A871B87DF91CF9134
:103660001F910F91FF90EF9008958091EC030895C2
:1036700067707070E82FF0E0EA5DFC4E8491863050
:10368000D0F0883018F08B30B0F40BC08091B100CE
:10369000887F8093B1008091B100862B8093B10028
:1036A000089580919100887F80939100809191008E
:1036B000862B8093910008950E9499558091EC0388
:1036C000882309F036C081E08093EC038091EF03FA
:1036D0009091F003A091F103B091F2038093F30372
:1036E0009093F403A093F503B093F603E7EFF2E0B1
:1036F000949108C08091C00085FFFCCF9093C600D4
:10370000319694919923B1F7EEEFF2E0949108C0CD
:103710008091C00085FFFCCF9093C60031969491B4
:103720009923B1F78091C00085FFFCCF8AE0809398
:10373000C6000895F8940E9499555E9A1092D90394
:103740005E9A1092DA03159A1092DB035E9AE7EF05
:10375000F2E0949108C08091C00085FFFCCF909367
:10376000C600319694919923B1F7E4E7F3E0949180
:1037700008C08091C00085FFFCCF9093C6003196B1
:1037800094919923B1F78091C00085FFFCCF8AE026
:103790008093C600FFCF0E941F626093F90370936D
:1037A000FA038093FB039093FC03E3E9F3E0949125
:1037B00008C08091C00085FFFCCF9093C600319671
:1037C00094919923B1F78091C00085FFFCCF8AE0E6
:1037D0008093C60008956F927F928F929F92AF92CE
:1037E000BF92CF92DF92EF92FF920F931F93F82E2A
:1037F000609101047091020480910304909104048B
:10380000209105043091060440910704509108046A
:103810000E9430673B014C0100D000D000D00DB7B2
:103820001EB70F5F1F4F60915F0270916002882783
:1038300077FD8095982F0E94B76520917A0230918C
:103840007B0240917C0250917D020E94F56720E04E
:1038500030E040E752E40E941C6520E030E048EC94
:1038600052E40E941C655B016C01F8016082718268
:1038700082829382F4828091E003858381EB93E0DE
:103880006DE074E041E054E020E001E032E0E32E3E
:103890000E94C23680910D0490910E04A0910F04F5
:1038A000B09110048093B1039093B203A093B3033B
:1038B000B093B4038091110490911204A091130469
:1038C000B09114048093B5039093B603A093B7030B
:1038D000B093B8038091150490911604A091170439
:1038E000B09118048093B9039093BA03A093BB03DB
:1038F000B093BC038091190490911A04A0911B0409
:10390000B0911C048093BD039093BE03A093BF03AA
:10391000B093C0038DB79EB706960FB6F8949EBFBE
:103920000FBE8DBF0E941F626093F9037093FA036C
:103930008093FB039093FC031F910F91FF90EF90F6
:10394000DF90CF90BF90AF909F908F907F906F90BF
:103950000895CF92DF92EF92FF920F931F93E09022
:103960006902F0906A0200916B0210916C02609102
:103970000D0470910E0480910F0490911004A80121
:1039800097010E942367181644F4E0920D04F09208
:103990000E0400930F0410931004E0906D02F09059
:1039A0006E0200916F02109170026091110470918B
:1039B00012048091130490911404A80197010E94AD
:1039C0002367181644F4E0921104F0921204009355
:1039D000130410931404E0907102F09072020091AD
:1039E0007302109174026091150470911604809115
:1039F000170490911804A80197010E9423671816D4
:103A000044F4E0921504F092160400931704109306
:103A100018040E941F626093F9037093FA03809365
:103A2000FB039093FC036091B1037091B20380910A
:103A3000B3039091B40320910D0430910E04409192
:103A40000F04509110040E941565882309F07AC074
:103A50006091B5037091B6038091B7039091B8035C
:103A600020911104309112044091130450911404D8
:103A70000E941565882309F065C060917A027091F3
:103A80007B0280917C0290917D0220E030E040E753
:103A900052E40E941C657B018C018DE094E061E1A1
:103AA00074E045E154E029E134E0E0EECE2EE3E0BD
:103AB000DE2E0E94234180910D0490910E04A0916E
:103AC0000F04B09110048093B1039093B203A093BC
:103AD000B303B093B4038091110490911204A091A8
:103AE0001304B09114048093B5039093B603A0938C
:103AF000B703B093B8038091150490911604A09178
:103B00001704B09118048093B9039093BA03A0935B
:103B1000BB03B093BC038091190490911A04A09147
:103B20001B04B0911C048093BD039093BE03A0932B
:103B3000BF03B093C0031F910F91FF90EF90DF90F0
:103B4000CF90089560915F0270916002882777FDA1
:103B50008095982F0E94B76520917A0230917B0260
:103B600040917C0250917D020E94F56720E030E098
:103B700040E752E40E941C6520E030E048EC52E44B
:103B800088CF8AEA93E00E940F19E6E9F3E0949166
:103B900008C08091C00085FFFCCF9093C60031968D
:103BA00094919923B1F74091EF035091F003609104
:103BB000F1037091F2034F5F5F4F6F4F7F4F8AEABF
:103BC00093E02AE030E00E94D2198091C00085FF86
:103BD000FCCF8AE08093C6000E94CB1B08952F92F1
:103BE0003F924F925F926F927F928F929F92AF928D
:103BF000BF92CF92DF92EF92FF920F931F93DF93CA
:103C0000CF93CDB7DEB728970FB6F894DEBF0FBEBF
:103C1000CDBF98878F838330910508F056C1FC0192
:103C2000EC5CFA4FD4903C01660C771C660C771C58
:103C300093012F543C4F3A83298380E090E0A0E029
:103C4000B0E0F90180839183A283B38381EB93E099
:103C500065EB73E049EB53E02DEB33E00E94133C3E
:103C6000F301E95CFA4FE590F590059114916D2D03
:103C7000772767FD7095882777FD8095982F0E949C
:103C8000B7651B012C019301235F3B4F3C832B83C2
:103C9000C801B70120E030E040EC5FE30E94F56727
:103CA000A20191010E94F567AB81BC816D937D9368
:103CB0008D939C931397F301E15BFD4FFE83ED839E
:103CC000608171818281938160937A0270937B021B
:103CD00080937C0290937D0220E030E040E752E444
:103CE0000E941C657B018C018DE094E061E174E031
:103CF00045E154E029E134E0A0EECA2EA3E0DA2E3B
:103D00000E9423410E94C84D80E090E0A0E0B0E016
:103D1000E981FA8180839183A283B38381EB93E06D
:103D200065EB73E049EB53E02DEB33E00E94133C6D
:103D3000F301ED5BFA4F85909590A590B490C50185
:103D4000B4019058A20191010E94F567AB81BC813A
:103D50006D937D938D939C93139760917A027091EC
:103D60007B0280917C0290917D0220E030E040E770
:103D700052E40E941C657B018C018DE094E061E1BE
:103D800074E045E154E029E134E00E9423410E94BF
:103D9000C84DC501B401A50194010E943C64A20173
:103DA00091010E94F567EB81FC81608371838283BE
:103DB0009383AD81BE816D917D918D919C9120E029
:103DC00030E040E05FE30E94F56760937A02709311
:103DD0007B0280937C0290937D0220E030E040E7FC
:103DE00052E40E941C657B018C018DE094E061E14E
:103DF00074E045E154E029E134E00E9423410E944F
:103E0000C84DF301E15BFA4F6591759185919491ED
:103E1000F301EF53FC4FA080B180C280D380A60194
:103E200095010E943C647B018C01CB01D801E981A2
:103E3000FA8180839183A283B383F301E55AFA4F19
:103E40006591759185919491FDEC8F2EF3E09F2EF5
:103E5000860C971CA60195010E943C64D4016D93C9
:103E60007D938D939C931397F301E959FA4F6591D4
:103E7000759185919491E9E6F2E06E0E7F1EA601A0
:103E800095010E943C64D3016D937D938D939C9327
:103E90001397C701D801EB81FC8180839183A283B2
:103EA000B38380E090E0A0E0B0E080937A0290934A
:103EB0007B02A0937C02B0937D020E94094DAF81EA
:103EC000B885A752BC4F81E08C9328960FB6F89422
:103ED000DEBF0FBECDBFCF91DF911F910F91FF903D
:103EE000EF90DF90CF90BF90AF909F908F907F909A
:103EF0006F905F904F903F902F900895FC019491A8
:103F000008C08091C00085FFFCCF9093C600319619
:103F100094919923B1F78AEA93E022E030E00E947D
:103F2000E21A0895FC01949108C08091C00085FFB9
:103F3000FCCF9093C600319694919923B1F78AEA09
:103F400093E02AE030E00E94B319089540912804DC
:103F50005091290420E630E0B901469F9001479F27
:103F6000300D569F300D1124682F772767FD70950F
:103F7000C901865D9B4F0E94B10C9C019093270460
:103F80008093260480E0232B09F081E0089580913E
:103F9000260490912704019660E070E04AE050E02A
:103FA0000E94500B08958091260490912704019659
:103FB00060E070E00E94F0090895CF93DF93EC0178
:103FC0008091E0038093EE0384E50E94A61F88237E
:103FD00009F482C00E94D31F0E948965262F609336
:103FE000EE03662309F478C0E1EFF2E0949108C093
:103FF0008091C00085FFFCCF9093C60031969491CC
:104000009923B1F7CD36D105C1F0CE36D10544F4B0
:10401000C836D105C1F0C936D10509F04DC010C070
:10402000CA3DD10539F0CD3DD10509F045C0EBE0E1
:10403000F1E03FC0E2E2F1E031C0E9E3F1E023C0AA
:10404000E0E5F1E015C0E7E6F1E007C08091C000CF
:1040500085FFFCCF31969093C60090819923B1F7EC
:104060002BC08091C00085FFFCCF31969093C60095
:1040700090819923B1F720C08091C00085FFFCCFCB
:1040800031969093C60090819923B1F715C0809125
:10409000C00085FFFCCF31969093C6009081992394
:1040A000B1F70AC08091C00085FFFCCF3196909394
:1040B000C60090819923B1F78AEA93E0622F40E02D
:1040C00050E00E94C0198091C00085FFFCCF8AE0BB
:1040D0008093C60081E001C080E0DF91CF91089518
:1040E000AF92BF92CF92DF92EF92FF920F931F9306
:1040F000CF93DF9311EBE12E13E0F12ECDE0D4E06E
:1041000000E010E0F801E652FD4F80810E94A61FFA
:10411000882339F10E94D31F5B016C01F801E5553A
:10412000FC4F8081882311F061E002C060911D0482
:1041300070E0882777FD8095982F0E94B765F7017A
:1041400020813181428153810E94F5679B01AC013E
:10415000C601B5010E943C64688379838A839B838E
:1041600009C0F70180819181A281B38188839983FD
:10417000AA83BB830F5F1F4F84E090E0E80EF91E17
:1041800024960430110509F0BDCF86E40E94A61FD5
:104190008823E1F00E94D31F7B018C0160931E04F1
:1041A00070931F04809320049093210420E030E05A
:1041B00040E050E00E942367181644F4E0927A022F
:1041C000F0927B0200937C0210937D02DF91CF91ED
:1041D0001F910F91FF90EF90DF90CF90BF90AF9025
:1041E00008950E94702089E40E94A61F882359F038
:1041F0000E94D31F60930104709302048093030410
:10420000909304040CC080E090E0A0E0B0E08093C4
:10421000010490930204A0930304B09304048AE47D
:104220000E94A61F882359F00E94D31F60930504A3
:10423000709306048093070490930804089580E027
:1042400090E0A0E0B0E08093050490930604A09372
:104250000704B093080408959F92AF92BF92CF9243
:10426000DF92EF92FF920F931F93CF93DF9380E63D
:10427000C82ED12CE3E7F5E0B4900AE0A02E9924F3
:1042800093940DC22D3071F02A3321F48091AB0547
:10429000882341F08091AC059091AD058F35910553
:1042A0000CF4D9C1E091AC05F091AD05309719F44B
:1042B0001092AB052DC2A091AE05B091AF05AC9D9B
:1042C0008001AD9D100DBC9D100D1124E00FF11F5C
:1042D000E65DFB4F10828091AB05882309F0B6C1E3
:1042E0001092AB05A055BA4F1C92E801C65DDB4F9A
:1042F000CE016EE470E00E94B10C9C01009709F4BD
:10430000F7C090932704809326042F5F3F4F2C1B08
:104310003D0B200F311FC901865D9B4F60E070E0AF
:104320004AE050E00E94500B6093B4057093B505CD
:104330008093B6059093B705E090EF03F090F003FB
:104340000091F1031091F203A80197012F5F3F4FF5
:104350004F4F5F4F621773078407950709F4BEC17B
:104360008091AE059091AF059C012C9DC0012D9DC3
:10437000900D3C9D900D1124865D9B4F6FE876E07B
:104380000E94970C892B09F0A9C1E7EFF2E0949104
:1043900008C08091C00085FFFCCF9093C600319685
:1043A00094919923B1F7ECE5F6E0949108C08091DF
:1043B000C00085FFFCCF9093C6003196949199235D
:1043C000B1F78AEA93E0B801A7012AE030E00E9441
:1043D000D2198091C00085FFFCCF73C01E274F5FAC
:1043E000FC01E40FF11DE65DFB4FE081EA32B1F71D
:1043F0003093270420932604C901019660E070E001
:104400000E94F0090E948465212F30E026173707AB
:1044100009F45DC0E7EFF2E0949108C08091C0001C
:1044200085FFFCCF9093C600319694919923B1F704
:10443000EDE3F6E0949108C08091C00085FFFCCFC9
:104440009093C600319694919923B1F74091EF0370
:104450005091F0036091F1037091F2038AEA93E0C6
:104460002AE030E00E94D2198091C00085FFFCCF85
:1044700028C0E7EFF2E0949108C08091C00085FF6A
:10448000FCCF9093C600319694919923B1F7E3E164
:10449000F6E0949108C08091C00085FFFCCF909316
:1044A000C600319694919923B1F78AEA93E0B80156
:1044B000A7012AE030E00E94D2198091C00085FF58
:1044C000FCCF8AE08093C6000E94C11D4AC0809143
:1044D000B4059091B505A091B605B091B70580934C
:1044E000EF039093F003A093F103B093F2033EC067
:1044F000CE016AE270E00E94B10C009709F436C068
:10450000E7EFF2E0949108C08091C00085FFFCCFF6
:104510009093C600319694919923B1F7E9EEF5E0B6
:10452000949108C08091C00085FFFCCF9093C60095
:10453000319694919923B1F74091EF035091F00394
:104540006091F1037091F2038AEA93E02AE030E08F
:104550000E94D2198091C00085FFFCCF8AE0809331
:10456000C6001092AD051092AC05D2C08091AE0588
:104570009091AF058C9D80018D9D100D9C9D100D1F
:104580001124E801C65DDB4FCE0167E470E00E94B4
:10459000B10C9C01009771F190932704809326043D
:1045A0002F5F3F4F2C1B3D0B200F311FC901865D34
:1045B0009B4F60E070E00E94F0090E9484656430C7
:1045C0007105C0F48091EC038823A1F09B2DE3E7F3
:1045D000F5E008C08091C00085FFFCCF9093C60035
:1045E000319694919923B1F78091C00085FFFCCF5B
:1045F000A092C6008091AE059091AF059C012C9DC4
:10460000C0012D9D900D3C9D900D1124865D9B4F0A
:104610006EE771E00E94BC0C009711F40E949A1B97
:104620008091AE059091AF05019664E070E00E9424
:10463000FA689093AF058093AE058091F70390914F
:10464000F80301969093F8038093F7031092AD0559
:104650001092AC0524C02B3311F49092AB058091DD
:10466000AB058823E1F42091AC053091AD05809134
:10467000AE059091AF058C9DF0018D9DF00D9C9D38
:10468000F00D1124E20FF31FE65DFB4F8091AA05A8
:1046900080832F5F3F4F3093AD052093AC05809111
:1046A000A6039091A7032091A8033091A903821B30
:1046B000930B8F779070892B59F18091F70390912C
:1046C000F80304972CF58AEA93E00E94F118282F4A
:1046D0008093AA058A3009F0D5CDE4CD8091AE054E
:1046E0009091AF058C9DE0018D9DD00D9C9DD00DCE
:1046F0001124CE01865D9B4F6AE270E00E94B10CEE
:104700009C01009709F4B5CE10E040E0CE0168CEE0
:10471000DF91CF911F910F91FF90EF90DF90CF909D
:10472000BF90AF909F900895EF92FF920F931F93C9
:104730008091F7039091F803039714F40E942C21C1
:104740000E941F62E090FD03F090FE030091FF03C2
:10475000109100042091F9033091FA034091FB037A
:104760005091FC03621B730B840B950BE616F70646
:104770000807190738F4E114F1040105110511F0D7
:104780000E949A1B8091760290917702A091780204
:10479000B09179020097A105B10559F10E941F62FD
:1047A0002091F9033091FA034091FB035091FC03EF
:1047B000621B730B840B950B20917602309177026C
:1047C0004091780250917902261737074807590718
:1047D00080F49091FC0A8091FD0A981751F45E9A3A
:1047E0001092D9035E9A1092DA03159A1092DB03A5
:1047F0005E9A0E943A3E1F910F91FF90EF900895AC
:104800002F923F924F925F926F927F928F929F92E0
:10481000AF92BF92CF92DF92EF92FF920F931F93CE
:10482000DF93CF93CDB7DEB76E970FB6F894DEBFA8
:104830000FBECDBF87E40E94A61F882309F42CC2B7
:104840000E94D31F0E9484656430710509F44AC038
:104850006530710554F46230710551F163307105B2
:10486000A4F57723CCF40C94AE346A35710509F4C1
:10487000BEC16B35710534F46C31710511F00C94C7
:10488000AE3472C06B35710509F4B5C16C35710574
:1048900011F00C94AE34B4C18091EC03882311F074
:1048A0000C94AE340E9470200E94A91C0C94AE346B
:1048B0008091EC03882311F00C94AE340E94F12017
:1048C00081E00E94EB1B0C94AE348091EC038823B2
:1048D00011F00C94AE340E94F12080E00E94EB1B9A
:1048E0000C94AE3480E50E94A61F882321F4CC24CA
:1048F000DD24760106C00E94D31F0E9489656B01EA
:104900007C0183E50E94A61F882361F00E94D31FCB
:1049100020E030E04AE754E40E94F5670E94896590
:104920006B017C010E94C84D0E941F624B015C011B
:104930008C0C9D1CAE1CBF1C0E941F626093F9036F
:104940007093FA038093FB039093FC0304C00E94CE
:1049500065590E9494230E941F62681579058A0593
:104960009B05A8F30C94AE3480917A0290917B025F
:10497000A0917C02B0917D02809322049093230445
:10498000A0932404B093250480915F02909160026B
:104990009093B0038093AF0384E690E0909360021D
:1049A00080935F020E941F626093F9037093FA0381
:1049B0008093FB039093FC0381E00E94104D809153
:1049C000B1039091B203A091B303B091B40380936B
:1049D0000D0490930E04A0930F04B09310048091E3
:1049E000B5039091B603A091B703B091B80380933B
:1049F000110490931204A0931304B09314048091B3
:104A0000B9039091BA03A091BB03B091BC0380930A
:104A1000150490931604A0931704B0931804809182
:104A2000BD039091BE03A091BF03B091C0038093DA
:104A3000190490931A04A0931B04B0931C0480E003
:104A400090E0A0E0B0E080937A0290937B02A09384
:104A50007C02B0937D0288E50E94A61F882361F442
:104A600089E50E94A61F882339F48AE50E94A61FC3
:104A7000882311F481E001C080E080937E028823C6
:104A800029F48AE50E94A61F882321F082E090E0A5
:104A90000E94EF1D80917E02882329F488E50E9400
:104AA000A61F882321F080E090E00E94EF1D8091F6
:104AB0007E02882329F489E50E94A61F882321F01D
:104AC00081E090E00E94EF1D88E50E94A61F8823E8
:104AD000D9F00E94C71F6115710581059105A1F0EC
:104AE0000E94D31F2091C1033091C2034091C303A0
:104AF0005091C4030E943C646093B1037093B2036D
:104B00008093B3039093B40389E50E94A61F882382
:104B1000D9F00E94C71F6115710581059105A1F0AB
:104B20000E94D31F2091C5033091C6034091C70353
:104B30005091C8030E943C646093B5037093B60320
:104B40008093B7039093B8038AE50E94A61F882339
:104B5000D9F00E94C71F6115710581059105A1F06B
:104B60000E94D31F2091C9033091CA034091CB0307
:104B70005091CC030E943C646093B9037093BA03D4
:104B80008093BB039093BC0381EB93E065EB73E0F0
:104B900049EB53E02DEB33E00E94133C80E00E9490
:104BA000104D8091220490912304A0912404B0918F
:104BB000250480937A0290937B02A0937C02B093A9
:104BC0007D028091AF039091B00390936002809337
:104BD0005F020E941F626093F9037093FA0380934F
:104BE000FB039093FC030E94094D0C94AE34109289
:104BF0001D040C94AE3481E080931D040C94AE34FB
:104C000085E40E94A61F882311F40E94C84D51EB31
:104C1000E52E53E0F52E41ECC42E43E0D42E00E007
:104C200010E0F801E652FD4F80810E94A61F882304
:104C300031F1033061F40E94D31FF7016083718367
:104C4000828393838DEB93E00E94F53B18C00E9412
:104C5000D31FF60120813181428153810E943C643F
:104C6000F701608371838283938381EB93E065EB2B
:104C700073E049EB53E02DEB33E00E94133C0F5FF0
:104C80001F4F24E030E0E20EF31EC20ED31E0430AC
:104C9000110539F60C94AE348DE40E94A61F8823CA
:104CA00011F40C94D0330E94D31F0E94846569379D
:104CB000710511F40C94162F6A3771050CF075C04C
:104CC0006836710509F405C269367105CCF56135A0
:104CD000710509F48BC662357105BCF4623171054A
:104CE00009F4A0C66331710534F46131710511F026
:104CF0000C94AE34F4C06F31710509F4F6C06A3219
:104D0000710511F00C94AE349AC16435710509F443
:104D100089C66535710554F46235710509F479C6A3
:104D20006335710511F00C94AE3477C665357105A5
:104D300009F4C8C66C35710511F00C94AE34DBC6AD
:104D40006037710509F4E7C16137710594F46A367B
:104D5000710509F414C66A3671050CF4F1C16B369D
:104D6000710509F43DC66D36710511F00C94AE3431
:104D70000BC36537710509F452C76637710554F4E2
:104D80006237710509F45AC76337710511F00C9445
:104D9000AE3436C76737710509F49DC068377105B1
:104DA00011F00C94AE340C94122F623E710511F484
:104DB0000C942E31633E71050CF041C06B3C7105C3
:104DC00011F40C943E306C3C7105CCF46E3B7105D3
:104DD00009F4C4C46F3B710534F46C38710511F0EB
:104DE0000C94AE349CC1683C710511F40C94A12F55
:104DF000693C710511F00C94AE340C941C306E3C7F
:104E0000710511F40C94DA306F3C710564F46C3C5C
:104E1000710511F40C945C306D3C710511F00C942B
:104E2000AE340C947C306C3D710511F40C94F83068
:104E30006D3D710511F00C94AE340C94073131E0E6
:104E4000643F730711F40C94AA3281E0653F780740
:104E5000F4F491E06E32790711F40C945832E1E0E9
:104E60006F327E073CF46D52714011F00C94AE34F9
:104E70000C94803121E06F32720711F40C94673288
:104E80006059714011F00C94AE340C94A73281E05B
:104E9000673F780711F40C94B33291E0683F7907CB
:104EA0006CF4E1E0653F7E0711F40C94AD32665F6F
:104EB000714011F00C94AE340C94B03223E06335A1
:104EC000720711F40C94B632675E734011F00C94C3
:104ED000AE340C94BB33E3E8F1E00C94212F5E98E0
:104EE0005E9815985E980C94AE340E941F62609391
:104EF000E8037093E9038093EA039093EB03209116
:104F0000E4033091E5034091E6035091E703621B0F
:104F1000730B840B950B28EE33E040E050E00E94C9
:104F20000D69F22EE32ED42EC52E8DB79EB70897AD
:104F30000FB6F8949EBF0FBE8DBF0DB71EB70F5FA3
:104F40001F4FCE010196EDB7FEB79283818385E2B4
:104F500095E0F80193838283622F732F842F952F1E
:104F60002CE330E040E050E00E940D69F801358309
:104F700024836F2D7E2D8D2D9C2D2CE330E040E081
:104F800050E00E940D69F801778366830E94D30C7C
:104F9000E1EFF2E094912DB73EB7285F3F4F0FB697
:104FA000F8943EBF0FBE2DBF08C08091C00085FFA2
:104FB000FCCF9093C600319694919923B1F7FE01EE
:104FC000319607C08091C00085FFFCCF3196909349
:104FD000C60090819923B1F78091C00085FFFCCF76
:104FE0008AE08093C60080912806882311F40C94EF
:104FF000AE34109228068091E003082F10E0000FD5
:10500000111F025A144FF80160817181882777FDC2
:105010008095982F0E94B765209183023091840279
:1050200040918502509186020E942367181614F061
:105030000C94AE34F801118210820C94AE3483E5E6
:105040000E94A61F882311F40C94AE340E94D31F33
:105050000E9484657B018C016B0180E50E94A61F84
:10506000882369F0F7FC0BC0FFEFEF16F10409F09D
:1050700034F40E94D31F0E9484658B0102C00FEF9D
:105080001FEFEEEDF2E0808191818017910711F41E
:105090000C94AE34329623E0E631F207A1F70430E7
:1050A000110529F4D092E203C092E10304C017FF76
:1050B00002C00C94AE34802F61E00E944C63802FBC
:1050C0006C2D0E94C963802FB6010E94CE620C94A1
:1050D000AE3488E690E00E94DD1F882311F00C9426
:1050E000AE3483E50E94A61F882389F00E94D31F57
:1050F0002091EE03E22EFF24EE0CFF1CEEE5FBE018
:10510000EE0EFF1E0E948465F701718360830E948A
:1051100098550C94AE340E949A1B0C94AE3483E5DF
:105120000E94A61F882311F40C94AE340E94D31F52
:105130000E9484657093610B6093600B0C94AE3495
:1051400089E690E00E94DD1F882311F00C94AE34B4
:10515000EFE1F5E0949108C08091C00085FFFCCF9D
:105160009093C600319694919923B1F7E091EE03A4
:10517000F0E0EE0FFF1FEE0FFF1FEC59F44F4081E0
:105180005181628173818AEA93E021E030E00E94DC
:10519000E21AECE1F5E0949108C08091C00085FF2F
:1051A000FCCF9093C600319694919923B1F7E0918A
:1051B000EE03F0E0EE0FFF1FE25AF44F60817181C1
:1051C000882777FD8095982F0E94B765AB01BC01B9
:1051D0008AEA93E021E030E00E94E21AE8E1F5E09B
:1051E000949108C08091C00085FFFCCF9093C600C9
:1051F000319694919923B1F740916A0B50916B0BC2
:1052000060916C0B70916D0B8AEA93E021E030E0C5
:105210000E94E21AE5E1F5E0949108C08091C00097
:1052200085FFFCCF9093C600319694919923B1F7F6
:105230006091600B7091610B882777FD8095982FA6
:105240000E94B765AB01BC018AEA93E021E030E03F
:105250000E94E21AE2E1F5E0949108C08091C0005A
:1052600085FFFCCF9093C600319694919923B1F7B6
:105270008AEA93E060E070E04AE050E00E94071A9A
:10528000E0E1F5E0949108C08091C00085FFFCCF7B
:105290009093C600319694919923B1F74091640B95
:1052A0005091650B6091660B7091670B8AEA93E0F1
:1052B00021E030E00E94E21AEDE0F5E0949108C0B0
:1052C0008091C00085FFFCCF9093C60031969491E9
:1052D0009923B1F760915E0B70915F0B882777FD82
:1052E0008095982F0E94B765AB01BC018AEA93E0D4
:1052F00021E030E00E94E21AE9E0F5E0949108C074
:105300008091C00085FFFCCF9093C60031969491A8
:105310009923B1F78091EE030E94DD54BC018AEA23
:1053200093E04AE050E00E94071AE4E0F5E094912F
:1053300008C08091C00085FFFCCF9093C6003196D5
:1053400094919923B1F78FEF9FEF0E94DD54BC0138
:105350008AEA93E04AE050E00E94071AECE9F1E0A3
:1053600007C08091C00085FFFCCF31969093C600A6
:1053700090819923B1F78091C00085FFFCCF8AE02E
:105380008093C6000C94D1348DE690E00E94DD1F1E
:10539000882311F00C94AE341092280683E50E9405
:1053A000A61F8823A9F00E94D31F2091EE03E22EAE
:1053B000FF24EE0CFF1C2EE53BE0E20EF31E0E94E4
:1053C0008465F7017183608381E08093750218C062
:1053D00082E50E94A61F882399F00E94D31F209186
:1053E000EE03E22EFF24EE0CFF1C2EE53BE0E20E66
:1053F000F31E0E948465F701718360831092750229
:1054000083E50E94A61F882351F00E94D31F60935A
:10541000830270938402809385029093860282E4D3
:105420000E94A61F882351F00E94D31F60937F0221
:1054300070938002809381029093820286E40E949E
:10544000A61F882369F00E94D31F60938702709380
:1054500088028093890290938A0281E080932806D3
:105460000E9498550E941F624B015C012091EE033F
:10547000E22EFF241092ED03EE0CFF1CF701E25A1E
:10548000F44F60817181882777FD8095982F0E9465
:10549000B765EE0CFF1C24E63BE0E20EF31EF701BD
:1054A00020813181428153810E94236718161CF4A8
:1054B00081E08093ED031092E303CC24CA94DC2CAA
:1054C0007601E1E0F5E05490EDEFF4E06490E9EF6F
:1054D000F4E074906AE0462E18C1952DE1E0F5E005
:1054E00008C08091C00085FFFCCF9093C600319624
:1054F00094919923B1F7E091EE03F0E0EE0FFF1FD6
:10550000EE0FFF1FEC59F44F40815181628173818E
:105510008AEA93E021E030E00E94E21A962DEDEF56
:10552000F4E008C08091C00085FFFCCF9093C600D6
:10553000319694919923B1F76091EE038AEA93E052
:1055400070E04AE050E00E94071A972DE9EFF4E07E
:1055500008C08091C00085FFFCCF9093C6003196B3
:1055600094919923B1F7F7FE03C0EDE9F1E028C06B
:105570000E941F62A7019601205F384D4F4F5F4F79
:10558000261B370B480B590BCA01B90128EE33E033
:1055900040E050E00E940D698AEA93E0BA01A90157
:1055A0002AE030E00E94B3198091C00085FFFCCF53
:1055B0000EC08091C00085FFFCCF31969093C6004D
:1055C00090819923B1F78091C00085FFFCCF409274
:1055D000C6000E941F624B015C010E9465590E9437
:1055E0009423FFEFCF16FFEFDF06FFEFEF06FFEF8D
:1055F000FF0609F052C08091ED03E091EE0388238D
:1056000031F1F0E08F01000F111F000F111F0C5935
:10561000144FEE0FFF1FE25AF44F6081718188270B
:1056200077FD8095982F0E94B76520E030E040E834
:105630005FE30E943B649B01AC01F80160817181D2
:10564000828193810E94236787FF58C05EC0F0E08B
:105650008F01000F111F000F111F0C59144FEE0F77
:10566000FF1FE25AF44F60817181882777FD809592
:10567000982F0E94B76520E030E040E85FE30E9489
:105680003C649B01AC01F80160817181828193814E
:105690000E941565181694F538C0F7FC36C0E091E5
:1056A000EE03F0E08F01000F111F000F111F0C59C6
:1056B000144FEE0FFF1FE25AF44F6081718188276B
:1056C00077FD8095982F0E94B7659B01AC01F8018A
:1056D00060817181828193810E943B640E94846514
:1056E00097FF07C090958095709561957F4F8F4F7C
:1056F0009F4F64307105810591053CF00E941F6247
:10570000AC01CB01DA016C017D018091E3038823B8
:1057100011F00C94B134FFEFCF16FFEFDF06FFEF6F
:10572000EF06FFEFFF0669F0F7FE02C00C94B134FC
:105730000E941F626C197D096051774210F00C9431
:10574000B1340E941F62681979098A099B09695E50
:1057500073408040904008F0C0CE3FCF83E50E9468
:10576000A61F882361F00E94D31F0E948465709356
:10577000610B6093600B81E0809375020FC082E53E
:105780000E94A61F882351F00E94D31F0E948465A7
:105790007093610B6093600B109275020E941F6200
:1057A0007B018C011092E3031092ED036091600B7A
:1057B0007091610B882777FD8095982F0E94B765BF
:1057C00020916A0B30916B0B40916C0B50916D0BDB
:1057D0000E94236718160CF080C081E08093ED03CF
:1057E0007CC00E941F626E197F09800B910B695E5D
:1057F00073408040904008F46BC0E091E003F0E01B
:10580000EE0FFF1FEE0FFF1FEC59F44F4081518147
:10581000628173819B2DE6EFF4E008C08091C000A7
:1058200085FFFCCF9093C600319694919923B1F7F0
:105830008AEA93E022E030E00E94E21A9C2DE2EF37
:10584000F4E008C08091C00085FFFCCF9093C600B3
:10585000319694919923B1F76091E0038AEA93E03D
:1058600070E04AE050E00E94071A9D2DEEEEF4E051
:1058700008C08091C00085FFFCCF9093C600319690
:1058800094919923B1F740916A0B50916B0B609101
:105890006C0B70916D0B8AEA93E021E030E00E947E
:1058A000E21AECE9F1E007C08091C00085FFFCCF6F
:1058B00031969093C60090819923B1F78091C000F2
:1058C00085FFFCCFA092C6000E941F627B018C0165
:1058D0000E9465590E9494230BC0E6EFF4E0B49057
:1058E000E2EFF4E0C490EEEEF4E0D490FAE0AF2EF4
:1058F0008091ED038823E1F08091E3038823C1F4D4
:105900006091600B7091610B882777FD8095982FCF
:105910000E94B76520916A0B30916B0B40916C0B24
:1059200050916D0B0E94236718160CF45ACF1BC0C0
:105930006091600B7091610B882777FD8095982F9F
:105940000E94B76520916A0B30916B0B40916C0BF4
:1059500050916D0B0E94156588232CF4809175027F
:10596000882309F43ECF0E941F626093F90370936D
:10597000FA038093FB039093FC030C94AE3483E50D
:105980000E94A61F882321F10E94D31F20E030E04F
:1059900040E050E00E94156588231CF460E070E050
:1059A00011C00E94D31F20E030E04FE753E40E9473
:1059B000236718161CF46FEF70E004C00E94D31F19
:1059C0000E9484657093E2036093E1030C94AE340B
:1059D0008FEF90E09093E2038093E1030C94AE3458
:1059E0001092E2031092E1030C94AE340E94995598
:1059F0000E94C84D5E9A0E94D44D1092E20310920C
:105A0000E10368EE73E080E090E00E942D620C9468
:105A1000AE341092AE030C94AE3481E08093AE03AA
:105A20000C94AE3483E50E94A61F8823A1F00E9447
:105A3000D31F20E030E04AE754E40E94F5670E945B
:105A400089656093760270937702809378029093D1
:105A500079020C94AE3488E50E94A61F882311F0C9
:105A60000C94C63489E50E94A61F882311F00C947B
:105A7000C6348AE50E94A61F882311F00C94C63410
:105A800085E40E94A61F882311F00C94C6340E945E
:105A9000C84D5E9A0E94D44D61C75E9A1092D90398
:105AA00089E50E94A61F882319F05E9A1092DA03F6
:105AB0008AE50E94A61F882309F450C7159A109200
:105AC000DB034CC783E50E94A61F882309F446C761
:105AD0000E94D31F20E030E04AE754E40E94F567BB
